:100000000C9475000C949D000C949D000C949D0024
:100010000C949D000C949D000C949D000C949D00EC
:100020000C949D000C949D000C949D000C949D00DC
:100030000C949D000C949D000C949D000C949D00CC
:100040000C94B20F0C949D000C9422100C94FC0F95
:100050000C949D000C949D000C949D000C949D00AC
:100060000C949D000C949D0000000008000201000B
:10007000000304070000000000000000CDCCCC3DD0
:100080000AD7233C17B7D13877CC2B329595E62485
:100090001FB14F0A000020410000C84200401C462A
:1000A00020BCBE4CCA1B0E5AAEC59D740000000099
:1000B000250028002B0000000000240027002A0053
:1000C00004040404040404040202020202020303FE
:1000D0000303030301020408102040800102040806
:1000E0001020010204081020051311241FBECFEFB9
:1000F000D8E0DEBFCDBF23E0A8E9B2E001C01D9289
:10010000A234B207E1F712E0A0E0B1E0E2E0FFE2E2
:1001100002C005900D92A839B107D9F710E0C5E7E4
:10012000D0E004C02197FE010E94DD14C437D1073E
:10013000C9F70E9454100C947F170C940000CF93C1
:10014000DF93EC0188819981DC01ED91FC910190B4
:10015000F081E02D64E270E00995009741F02FE115
:10016000FC01238321E02283DF91CF91089521E0D8
:100170002A83FACF90E0FC01EC52FF4F2491805487
:100180009F4FFC018491882399F090E0880F991F7C
:10019000FC01EA54FF4FA591B491FC01E455FF4FD7
:1001A000859194918FB7F894EC91E22BEC938FBFEB
:1001B000089590E0FC01E859FF4F2491FC01EC52B6
:1001C000FF4F3491FC01E054FF4FE491EE23C9F05E
:1001D000222339F0233001F1A8F4213019F1223023
:1001E00029F1F0E0EE0FFF1FE455FF4FA591B49108
:1001F0008FB7F894EC91611126C030953E233C9363
:100200008FBF08952730A9F02830C9F0243049F76E
:10021000809180008F7D03C0809180008F778093D4
:100220008000DFCF84B58F7784BDDBCF84B58F7D31
:10023000FBCF8091B0008F778093B000D2CF8091B8
:10024000B0008F7DF9CF3E2BDACFAF92BF92CF9225
:10025000DF92EF92FF920F931F93CF93DF936C0186
:100260007B018B01040F151FEB015E01AE18BF0867
:10027000C017D10759F06991D601ED91FC91019019
:10028000F081E02DC6010995892B79F7C501DF9131
:10029000CF911F910F91FF90EF90DF90CF90BF9083
:1002A000AF900895FC01538D448D252F30E0842FAD
:1002B00090E0821B930B541710F0CF96089501978E
:1002C0000895FC01918D828D981761F0A28DAE0F7B
:1002D000BF2FB11D5D968C91928D9F5F9F73928F02
:1002E00090E008958FEF9FEF08952FB7F8948091D5
:1002F0009D0290919E02A0919F02B091A0022FBFFB
:100300008093A9029093AA02A093AB02B093AC028F
:1003100081EA92E00E94610197FF26C02FB7F8940E
:1003200080919D0290919E02A0919F02B091A002A7
:100330002FBF4091A9025091AA026091AB02709127
:10034000AC02841B950BA60BB70B4091A5025091F4
:10035000A6026091A7027091A80284179507A607CC
:10036000B707B0F28FEF9FEF0895FC01918D828D5A
:10037000981731F0828DE80FF11D858D90E008957A
:100380008FEF9FEF0895FC01918D228D892F90E0D2
:10039000805C9F4F821B91098F739927089581EA92
:1003A00092E00E94C30121E0892B09F420E0822F12
:1003B000089580E090E0892B29F00E94CF018111FF
:1003C0000C9400000895FC01A48DA80FB92FB11D55
:1003D000A35ABF4F2C91848D90E001968F7399277B
:1003E000848FA689B7892C93A089B1898C91837059
:1003F00080648C93938D848D981306C00288F38952
:10040000E02D80818F7D80830895EF92FF920F937E
:100410001F93CF93DF93EC0181E0888F9B8D8C8DB0
:1004200098131AC0E889F989808185FF15C09FB7A4
:10043000F894EE89FF896083E889F9898081837067
:10044000806480839FBF81E090E0DF91CF911F9116
:100450000F91FF90EF900895F62E0B8D10E00F5F37
:100460001F4F0F731127E02E8C8D8E110CC00FB60D
:1004700007FCFACFE889F989808185FFF5CFCE01A5
:100480000E94E301F1CFEB8DEC0FFD2FF11DE35A3C
:10049000FF4FF0829FB7F8940B8FEA89FB89808128
:1004A0008062CFCFCF93DF93EC01888D8823B9F0A2
:1004B000AA89BB89E889F9898C9185FD03C080816F
:1004C00086FD0DC00FB607FCF7CF8C9185FFF2CFEC
:1004D000808185FFEDCFCE010E94E301E9CFDF915E
:1004E000CF9108956F3FA9F0E62FE295EF7044E0B9
:1004F000E49F90011124DC01ED91FC91E20FF31FC8
:100500006F7082819381B6E06B9F800D911D1124E5
:10051000089590E080E00895982F80336CF08A333E
:1005200024F08F3524F08B3724F481E00895813452
:100530001CF081E09B350CF080E00895FC0184857F
:10054000811114C0A781B085818592852FEF3FEF7F
:10055000A817B90730F4CD010196908787832C91B5
:1005600030E037FD20E0238781E08487838508958C
:100570001F93CF93DF93EC01162F0E949E028113ED
:1005800006C01C8681E0DF91CF911F91089580E025
:10059000FACF0F931F93CF93DF938C01EB018991D7
:1005A000882369F0C8010E949E02882379F0FE0129
:1005B0003197908198130DC0F8011486F0CF90E028
:1005C00080E0DF91CF911F910F91089582E090E03C
:1005D000F8CF83E090E0F5CFCF93DF93EC01CE012D
:1005E0000E949E028B304CF489305CF4882359F0D1
:1005F00081E08E8390E080E00BC08D3011F080327E
:10060000B9F71C86ECCF8E81811105C081E090E0A6
:10061000DF91CF91089582E090E0FACFDC0152960D
:100620009C915297915084E0989F9001112450968C
:10063000ED91FC91E20FF31F2281338121153105E9
:1006400079F041818081481758F481E0840F8183DB
:1006500086E0489F200D311D11242115310521F41C
:1006600060E070E08FEF0895B901892F8295807F57
:10067000840F0895DF92EF92FF920F931F93CF9311
:10068000DF93EC017B01D12C688979898A89D8169E
:10069000E0F484E0D89E80011124060F171FD801D2
:1006A00012966D917C916115710541F0D701ED9124
:1006B000FC910280F381E02DC7010995F8011382B6
:1006C000128210821182D394DFCF1A8A8FEF8C8B23
:1006D000C617D70761F0D701ED91FC910280F38135
:1006E000E02DC7010995D98BC88B84E08B8BDF91F6
:1006F000CF911F910F91FF90EF90DF900895CF92CF
:10070000DF92EF92FF920F931F93CF93DF937C01C1
:100710006B018A01FC01C081D1814F3F510509F075
:10072000B0F4E881F9810480F581E02D4B5F5F4FE3
:10073000CE010995009759F0FC010383DF91CF9119
:100740001F910F91FF90EF90DF90CF900895E88177
:10075000F9810280F381E02DB601CE01099581E097
:10076000F701828390E080E0E9CF1F93CF93DF937E
:10077000EC01162F6A817B816115710589F04C812E
:100780005D81FB0183818417150651F4440F551FC9
:100790004F5F5F4F888199810E947F039B838A838B
:1007A0008A819B81009759F02C813D81A9014F5F7F
:1007B0005F4F5D834C83820F931FFC011483DF9195
:1007C000CF911F9108959F92AF92BF92CF92DF92E7
:1007D000EF92FF920F931F93CF93DF9300D000D03F
:1007E0001F92CDB7DEB78C010E949E02D82EF80171
:1007F0001486F12CE12C60EFC62EC8010E949E02E7
:10080000F8011486D81609F4B3C0811113C082E030
:1008100090E00F900F900F900F900F90DF91CF917D
:100820001F910F91FF90EF90DF90CF90BF90AF900E
:100830009F9008958C3509F099C0C8010E949E02CE
:10084000882329F3E0E3F1E0853709F083C0F8015C
:10085000148654E0952EB12CA12CC8010E949E0252
:100860008823A9F2813434F48053803130F083E05E
:1008700090E0CFCF8F7D8753F8CF44E0AA0CBB1C0C
:100880004A95E1F7A82AF80114869A949110E5CFC9
:10089000C501985D8115944020F47501F3E0FF22B5
:1008A000ACCFC5019C5D81159440A8F483E0B822CB
:1008B000B701762F6627770F770F6A297B2990E09B
:1008C00080E00196603871058105910540F4C8010A
:1008D0000E94B50392CFB50190E080E0F3CF19827A
:1008E000262F2F7320682A8326E096958795779583
:1008F00067952A95D1F76032710580F4606C6B833F
:100900005E01E4E0AE0EB11CF50162915F01662369
:1009100009F473CFC8010E94B503F6CF262F2F73B9
:1009200020682B8386E0769567958A95E1F760319C
:10093000710538F4606E6C835E01F5E0AF0EB11C9A
:10094000E3CF60686C83CD825E0126E0A20EB11C0D
:10095000DBCF32969081992309F489CF8913F9CF9F
:100960008181882309F483CFF8011486682FAFCFE3
:1009700082819381892B19F484E090E04ACF90E042
:1009800080E047CF6F927F928F929F92AF92BF92FB
:10099000CF92DF92EF92FF920F931F93CF93DF934B
:1009A000EC012A813B812C5F3F4F4C815D814430BB
:1009B000510588F58901F90180E0942FB22FAE2FFF
:1009C000A21BA91730F4F190A1E0F110A0E08A2B4E
:1009D000F6CF811120C082E0EB018C83FB01802FD8
:1009E0008B1B891728F4E80189918E018193F7CF39
:1009F000640F751FFB011082DF91CF911F910F9142
:100A0000FF90EF90DF90CF90BF90AF909F908F902E
:100A10007F906F9008958B01F901E40FF51F10820C
:100A2000888199814C815D81DC011396ED91FC9167
:100A30003A01E89477F86901C60CD71C3097C1F0E9
:100A4000A381A615170481F449017F01B4E0EB0EE0
:100A5000F11C8C149D0429F1D401AD904D01D701F6
:100A6000BD907D01AB14A9F30190F081E02DE6CF9C
:100A70006A817B810E947F03FC01A881B981139662
:100A80008D919C911497918380831496FC93EE939F
:100A900013971B821A8285E0E8018C83F983E8832F
:100AA000ABCF82818F5F8283F6CFDB01ED91FC912A
:100AB00011970280F381E02DBC01CD010994AF9222
:100AC000BF92CF92DF92EF92FF920F931F93CF933B
:100AD000DF93EC018B018C8180FF24C0A881B98158
:100AE000FB018381948130E020E00097D9F0A817C2
:100AF000B907D1F5F8016081718112968C91129736
:100B0000815012968C93129781110CC08D919C91FB
:100B100011972115310529F1F90191838083CD01C8
:100B20000E9455058C81807631F1209721F1F88063
:100B30005801F5E1AF0EB11C8FEFF816D1F06F2D13
:100B4000C5010E9472026C01FC01E580B8010E949F
:100B50005F05F801818DF6018083F801F18EFE2C8E
:100B6000EBCF94838383DBCF9C01FC018081918157
:100B7000BCCFF882F9821C82DF91CF911F910F9137
:100B8000FF90EF90DF90CF90BF90AF9008950F93BC
:100B90001F93CF93DF93EC01088119818B819C8196
:100BA000009749F0FC01208131813C832B83B801FF
:100BB0000E945505F3CF68817981CE010596DF91BA
:100BC000CF911F910F910C943A0342E050E063E4FF
:100BD00071E081EA92E00C942501CF93DF93D0E09D
:100BE000C0E0009771F0FC0101900020E9F7319717
:100BF000AF01481B590BBC0181EA92E00E9425011C
:100C0000EC010E94E5058C0F9D1FDF91CF910895A7
:100C1000CF93DF93FC01448155816081718181EA2A
:100C200092E00E942501EC010E94E5058C0F9D1FBA
:100C3000DF91CF910895FC0130E020E0611571054E
:100C400049F0DB010D900020E9F79D0121503109A9
:100C5000261B370B718360832283832F8F779381C9
:100C60009078982B40FB97F993830895CF93DF9367
:100C700000D000D0CDB7DEB7FC018481843061F0B4
:100C80008530E1F040E0BF01823049F060E070E083
:100C900080E090E090680BC06081718141E0CE01FE
:100CA00001960E941B0669817A818B819C810F903D
:100CB0000F900F900F90DF91CF91089580819181D7
:100CC000FC01238130E00496BC01C9019F779F7726
:100CD000EECFBF92CF92DF92EF92FF920F931F93CE
:100CE000CF93DF93D62EC72E8A01452B09F442C03D
:100CF000E9016596FC016081CE010E947202FF2429
:100D0000FA94009711F0FC01F580EE24E394BB24E3
:100D1000B394009779F1EE20B1F00E9436062D2DA4
:100D20003C2D3F77AC015F772417350761F4D8017C
:100D3000E62FF72F200F311F2A173B0771F09D91E7
:100D400081919817C9F3EB246F2DCE010E94720296
:100D50000097F9F2FC01F580DCCF6F2DCE01DF9119
:100D6000CF911F910F91FF90EF90DF90CF90BF90A8
:100D70000C94720290E080E0DF91CF911F910F916F
:100D8000FF90EF90DF90CF90BF900895FC012481F9
:100D90003581232B39F421E0FB018081882349F040
:100DA00020E007C0808191810E946F1721E0892B8C
:100DB000B9F7822F08950F931F93CF93DF93EC0120
:100DC00088819981009759F02A813B81261737073E
:100DD00030F081E0DF91CF911F910F9108958B0149
:100DE0006F5F7F4F0E94A916009759F099838883FF
:100DF0001B830A832C813D81232B59F7FC01108230
:100E0000E8CF80E0E7CFCF92DF92EF92FF920F938F
:100E10001F93CF93DF938C01DC019296ED91FC91AF
:100E2000E80FF91F12826C01B2E0CB0ED11CC11485
:100E3000D10449F1F60101900020E9F73197EC194E
:100E4000FD09F1F0DC01ED90FC90D7011496CD91F5
:100E5000DC91CE0FDF1FBE01C7010E94DB06882395
:100E600091F0F7012081318184819581B601820F53
:100E7000931F0E947817D7011596DC93CE93149791
:100E8000F80113A212A2D80192968D919C91DF9144
:100E9000CF911F910F91FF90EF90DF90CF90089529
:100EA0001F93CF93DF93EC01162F8AA19BA101968C
:100EB0008097B8F48AA19BA19C012F5F3F4F3BA371
:100EC0002AA38C0F9D1FFC01128321E030E08CA12E
:100ED0009DA1820F931F9DA38CA3DF91CF911F91A2
:100EE0000895CE010E940307892B21F330E020E012
:100EF000EECFBF92CF92DF92EF92FF920F931F93AC
:100F0000CF93DF93EC016A018B017B01E40EF51EA8
:100F1000E016F106D1F0F801B1908F018AA19BA1F2
:100F20000196809760F48AA19BA19C012F5F3F4F9F
:100F30003BA32AA38C0F9D1FFC01B282E9CFCE01F7
:100F40000E940307892B79F3E3CF4CA15DA14C0DDF
:100F50005D1D5DA34CA3DF91CF911F910F91FF9079
:100F6000EF90DF90CF90BF9008958F929F92AF92B5
:100F7000BF92CF92DF92EF92FF920F931F93CF9386
:100F8000DF93CDB7DEB766970FB6F894DEBF0FBE1E
:100F9000CDBF6C018E01095E1F4F78018AE0882E5B
:100FA000912CA12CB12CCB01BA01A50194010E9476
:100FB000BB14942F852F605DF80162938F01A90106
:100FC000692F782F411551056105710561F7A7015A
:100FD0004E1B5F0BBF01C6010E94790766960FB6D4
:100FE000F894DEBF0FBECDBFDF91CF911F910F915F
:100FF000FF90EF90DF90CF90BF90AF909F908F9039
:101000000895FB0101900020E9F73197AF01461BDD
:10101000570B0C947907CF92DF92EF92FF920F93C8
:101020001F93CF93DF938C016B017A0162E20E94E0
:101030005007E601EC0CFD1CEC16FD0699F06991D9
:10104000E0E3F1E0D480DD20C9F0329683816813BB
:10105000F9CF6CE5C8010E9450076D2DC8010E94B0
:101060005007EACF62E2C801DF91CF911F910F9143
:10107000FF90EF90DF90CF900C9450076111EECF6E
:1010800066E471E0C8010E940108D6CF2F923F921A
:101090004F925F926F927F928F929F92AF92BF9288
:1010A000CF92DF92EF92FF920F931F93CF93DF9334
:1010B000CDB7DEB76B970FB6F894DEBF0FBECDBFCE
:1010C0007C018B01DC0114968C911497863009F415
:1010D000A3C2F8F4833009F492C258F440E0B70197
:1010E000823009F47BC26DE471E0C8010E940108FE
:1010F00081C2843009F46EC28530A9F7ED91FC916C
:10110000438150E0BF016C5F7F4FC8010E940B0814
:101110001CC28E3009F443C0E0F48A3009F477C26F
:101120008C3009F7CD90DD90ED90FC90B701A601D1
:10113000F7FE0BC06DE2C8010E94500744275527F7
:10114000BA014C195D096E097F09C8010E94B507F3
:10115000FCC1803209F415C2803429F66BE5C80160
:101160000E945007D701FC90BFEFFB1609F4E9C1BC
:10117000F80186A197A16F2D45960E9472027C010D
:10118000B8010E944608D7011596FC90BFEFFB16E8
:1011900009F4D7C16CE2C8010E945007E5CFF701FE
:1011A00080809180A280B380A5019401C501B40123
:1011B0000E943213882331F06DE471E0C8010E946F
:1011C0000108C3C120E030E0A901C501B4010E94BB
:1011D0003213882371F0A5019401C501B4010E9466
:1011E000E4149B01AC01C501B4010E9432138823B1
:1011F00019F320E030E0A901C501B4010E943213C7
:1012000087FF08C06DE2C8010E945007B7FAB0948A
:10121000B7F8B09420E836E948E15BE4C501B401D1
:101220000E947F1587FD83C074E1C72ED12CE0E2B8
:10123000EE2EF12C312C212CF601EC56FF4F65914E
:10124000759185919491A50194010E94321318160D
:101250007CF0F601E458FF4F25913591459154916A
:10126000C501B4010E9498134B015C012E0C3F1C78
:10127000F594E794F4E0CF1AD1082CEFC2162FEFC3
:10128000D206D1F63FEF3F8B20E030E0A901C50147
:10129000B4010E947F1518160CF051C02CEA35ECF1
:1012A00047E257E3C501B4010E94321318160CF44B
:1012B00046C0AF89B4E0AB02C0011124D12CC12CCF
:1012C000FC01E458FF4F2F019C012C563F4F390180
:1012D0003F893F3F09F433C0F201EC0DFD1D6591DC
:1012E00075918591949120E030E040E251E40E94B4
:1012F0009813A50194010E947F1518167CF4F30140
:10130000EC0DFD1D2591359145915491C501B40118
:101310000E9498134B015C012E183F08F594E79446
:101320008F8981508F8B94E0C91AD108D1CF50E2B8
:10133000E52EF12C85E08F8B312C212CA5CFC5011A
:10134000B4010E9450156B017C012B013C0180E42B
:1013500092E4AFE0B0E0888F998FAA8FBB8F96E0C0
:101360009F8BAAE04A16510461047104E0F0688D75
:10137000798D8A8D9B8D2AE030E040E050E00E941C
:10138000BB14288F398F4A8F5B8FBF89B150BF8BB9
:10139000C301B2012AE030E040E050E00E94BB14FB
:1013A00029013A01DECFC701B6010E9437139B0124
:1013B000AC01C501B4010E94E3144B015C01688DCE
:1013C000798D8A8D9B8D0E9437139B01AC01C501DD
:1013D000B4010E9498132B013C010E9450154B014F
:1013E0005C010E9437139B01AC01C301B2010E9452
:1013F000E3149B01AC010E94E4140E945015860E78
:10140000971EA81EB91E888D998DAA8DBB8D881632
:101410009906AA06BB06C0F09FEFC91AD90AE90AC5
:10142000F90A2114310439F1AAE0CA16D104E10401
:10143000F10408F1BFEF2B1A3B0A812C912C5401C7
:10144000C12CD12C7601C3942AE0422E512C612C60
:10145000712CC501B401A30192010E94BB14672B3A
:10146000682B692B61F4EF891E164CF449015A016F
:10147000E150EF8BEECF812C912C5401E5CFB701D9
:10148000A601C8010E94B507FF89FF2391F16E01F3
:1014900021E1C20ED11CF88F76019AE0492E512C21
:1014A000612C712C388D3150388F3F3F69F0C50168
:1014B000B401A30192010E94BB14605DD6016E933A
:1014C0006D0149015A01EECFBF898B2F90E0BC011D
:1014D00060957095F701E81BF90B31978EE28083D8
:1014E00044275527461B570B6E0D7F1DC8010E94D0
:1014F00079072114310449F165E6C8010E945007BB
:10150000710137FE07C06DE2C8010E945007F194D7
:10151000E194F108FE0177969F018AE0C82ED12C54
:10152000C701B6010E94A714805D82937B01672BDF
:10153000B9F7A9014E1B5F0BBF01C8010E947907D3
:1015400004C06DE5C8010E945007F80184A195A16F
:101550006B960FB6F894DEBF0FBECDBFDF91CF9173
:101560001F910F91FF90EF90DF90CF90BF90AF90C1
:101570009F908F907F906F905F904F903F902F90B3
:1015800008956BE7C8010E945007D701FC90EE2434
:10159000E394BB24B394BFEFFB16D1F0F80186A10E
:1015A00097A16F2D45960E9472026C01B8010E94AE
:1015B0004608D6011596FC90BFEFFB1639F06AE39A
:1015C000E11001C06CE2C8010E945007EB24E3CF98
:1015D0006DE7B8CFF7016081718141E0CE010196DE
:1015E0000E941B064B815C815F7769817A81C8010B
:1015F0000E940B08D80194968D919C91A9CFED91F2
:10160000FC91438150E0BF016C5F7F4F96CF4D91BD
:101610005D916D917C9199CD8C9162E571E0811124
:10162000CDCD67E571E0CACDCB01BA010C94A91606
:10163000CF93DF93EC0188819981009711F00E948C
:101640002016198218821D821C821B821A82DF9149
:10165000CF910895CF93DF93EC0170E060E00E949A
:10166000DB06811105C0CE01DF91CF910C94180BE0
:101670001D821C8262E471E088819981DF91CF91A3
:101680000C947817FC0180819181009711F00C94E3
:1016900020160895CB010C9420168F929F92AF9242
:1016A000BF92CF92DF92EF92FF920F931F93CF934F
:1016B000DF93CDB7DEB7C85BD1090FB6F894DEBFB4
:1016C0000FBECDBF8C01FB01C080D180C6014A9600
:1016D00042815381648175810097E1F5F12CE12C01
:1016E000F801118210821382128215821482C801BD
:1016F0000E942A0BE114F10409F443C0C7010E94BF
:1017000036064B01FB013097E1F101900020E9F72B
:1017100031977F01E61AF70AB701C8010E94DB067C
:10172000811126C0C8010E94180BC801C854DF4FA0
:101730000FB6F894DEBF0FBECDBFDF91CF911F91E2
:101740000F91FF90EF90DF90CF90BF90AF909F9060
:101750008F900895F601268D203211F090E080E000
:10176000009709F4BBCF96010E9469067C01B8CFAF
:10177000F801F582E482B401808191810E9478179A
:10178000D4CFCB56DF4F19830883C559D040C954F5
:10179000DF4F19821882C75BD040C8010E94180B26
:1017A00084E2FE01EB56FF4FDE01AF58BF4F0190C0
:1017B0000D928A95E1F784E2FE01EF58FF4FDE01BA
:1017C000A35BBF4F01900D928A95E1F784E2FE0181
:1017D000E35BFF4FDE01999601900D928A95E1F748
:1017E00084E2FE01B996DE01119601900D928A9570
:1017F000E1F71EA21DA2CE0189960E940307D8A67A
:10180000CFA2CE01835B9F4F0E940307E114F10436
:10181000A9F0BE016F5F7F4FC7010E944608CE014D
:1018200001960E940307CE018F589F4F0E94030725
:10183000CE018B569F4F0E94030777CF6DE471E076
:10184000CE0101960E940108EACFBF92CF92DF92AB
:10185000EF92FF920F931F93CF93DF93EC01198DBB
:101860001F3F81F0612F45960E947202FC0180812A
:10187000898F309709F477C014828FEF8583BF0179
:10188000812F76C06C0135E0C30ED11CE880F98051
:101890008F89882341F0C6010E940E03E62FF72F9F
:1018A000182F309749F71F89988D191324C01031CC
:1018B00009F459C0110F6D897E89D701ED91FC9112
:1018C000B4E01B9FA0011124C616D70609F044C03E
:1018D0000190F081E02DBA01C7010995009709F444
:1018E00042C020E1F601DC0101900D922A95E1F75A
:1018F0009E8B8D8B188F0D891E898F8921E0280F73
:101900002F8BE4E08E9FC0011124080F191F90E176
:10191000B92E203111F48FE0B82EF6E0BF9EB00151
:101920001124D701ED91FC910190F081E02DC701C8
:101930000995F80193838283892B09F4B12CD8018E
:10194000BC9211961C92012B71F0C6010E940E03ED
:10195000E62FF72F182F8DCF0480F581E02DC701DA
:101960000995009729F681E08A8360E070E08FEFA7
:10197000DF91CF911F910F91FF90EF90DF90CF906B
:10198000BF9008954F925F926F927F928F929F9235
:10199000AF92BF92CF92DF92EF92FF920F931F937D
:1019A000CF93DF93EC018B01D42E0E94EC027C01DB
:1019B000892B09F03FC0CE010E949E02863609F4B1
:1019C00078C1F4F4873229F08B3531F1823209F095
:1019D00077C11D821C828A819B81892B31F4888189
:1019E00099810E949F009B838A83CE010E94E3031A
:1019F0007C01892BF9F4B801CE010E94C2041AC0FF
:101A0000843709F43CC18B3709F46CC08E3609F079
:101A100057C16DE471E03AC180E4F8018483011597
:101A2000110519F08FEF80838183D11015C0C5E0B7
:101A3000EC2EF12CC701DF91CF911F910F91FF90F8
:101A4000EF90DF90CF90BF90AF909F908F907F905E
:101A50006F905F904F9008951C86CE010E94EC021B
:101A6000009739F56DE5CE010E94B8028111E2CFF1
:101A7000DA948D849E84C4010E94250CC82E5B01DB
:101A8000672B21F4B4E0EB2EF12CD4CFF801618167
:101A90006F3F89F0C40145960E947202FC01C58225
:101AA000F801C1824D2DB501CE010E94C20C0097F4
:101AB00021F07C01BFCF8083F4CFCE010E94EC02E5
:101AC0000097B9F76DE5CE010E94B8028111B2CF3F
:101AD0006CE2CE010E94B8028111CBCF83E0E82EE8
:101AE000F12CA8CF80E2F80184830115110519F0CB
:101AF0008FEF80838183DD2009F499CF1C86CE018E
:101B00000E94EC020097A9F66DE7CE010E94B80290
:101B1000811190CFDA941D821C828A819B81892B4E
:101B200031F4888199810E949F009B838A83CE0132
:101B30000E949E028732E1F08232D1F0CE010E94F3
:101B40009E02F82E0E948C02882341F21C866F2D83
:101B5000CE010E94B503CE010E949E02F82E0E9483
:101B60008C028111F3CF8A819B81892B41F48ACF2A
:101B7000CE010E94E3037C01892B09F05BCFCE01EB
:101B80000E94EC027C01892B09F054CF6AE3CE015C
:101B90000E94B802882309F4A1CFEA81FB818C81DD
:101BA0009D81E80FF91F14826C817D817F772D85DF
:101BB0003E858A819B810496472F4F77FC2DF078D4
:101BC000CF2EC42AE894C7F8AC017C2DC8010E942E
:101BD00069067C018D849E84009709F04CC0C40185
:101BE0000E94250C682E5B01672B09F44BCFC401C2
:101BF0000E94250C782E962FE92EF72EE114F10481
:101C000009F440CFF5017582F80161816F3F89F1D8
:101C1000C40145960E947202FC016582F80171823E
:101C2000B501CE010E94C2044D2DB701CE010E9424
:101C3000C20C7C01892B09F0FDCECE010E94EC0282
:101C40007C01892B09F0F6CE6DE7CE010E94B80227
:101C50008111F0CE6CE2CE010E94B802882309F413
:101C60003DCFCE010E94EC027C01892B09F453CFB9
:101C7000E1CE6082D4CFB4010E945F05D5CF86E06B
:101C8000F801848381E0808362E571E0CE01DF9119
:101C9000CF911F910F91FF90EF90DF90CF90BF9069
:101CA000AF909F908F907F906F905F904F900C942B
:101CB000C90286E0F8018483108267E571E0E6CF0F
:101CC000CE010E949E025E01FFE0AF0EB11CD12C3E
:101CD0009A2CCB2C803374F08A3374F42FE3D21611
:101CE00099F01C86D394F50181935F01CE010E9487
:101CF0009E02F0CF8B3291F393ED980F923070F3F8
:101D0000982F9F7D953451F3FE01ED0DF11D17863F
:101D10008F858B32E1F16096DD24D3948D3219F0FA
:101D2000C92DDC2DD12C888190ED980F9A3018F0B8
:101D30008E3209F0D3CE60E070E0CB01FE0121913C
:101D4000A0ED8A2E820E39E0381518F16A3949E97A
:101D50007407840749E1940730F5AAE0B0E09B01DD
:101D6000AC010E945614912CB12CA12C24013501F8
:101D7000409450946094709446165706680679060D
:101D800090F0680D791D8A1D9B1DEF01D7CF6096DD
:101D9000C9CF211108C0DD2059F1613071058105DD
:101DA00050E89507A0F0B12CEAE04E2E512C612CA2
:101DB000712C61157105F0E88F07910508F1A301F9
:101DC00092010E94BB14CA01B901B394F2CF2CE076
:101DD000F80124839B01AC0188279927DC01821B31
:101DE000930BA40BB50B80839183A283B38322CE84
:101DF0002AE0F801248360837183828393831ACE5F
:101E0000DE01299130ED320F3A3010F4B394F8CF5F
:101E10002E32D9F4FD013196DF013196CC91C053B9
:101E2000CA3098F46C3C2CEC72072CE082079105C8
:101E300098F7AAE0B0E09B01AC010E9456146C0F29
:101E4000711D811D911DBA94E7CF2C912F7DD0E09B
:101E5000C0E0253409F052C011962C9111972D3213
:101E6000B1F51296CC24C394FD01D0E0C0E02B2D37
:101E70000B2C000C330B5AE0952EDF01A19040EDA6
:101E80004A0D4A30B0F59C9EA0019D9E500D112434
:101E9000CA2DAA0CDD0BE097C40FD51FA9014C0F6A
:101EA0005D1F473251054CF3CC20C1F060E070E07B
:101EB00080E090E8D11003C060E070E0CB012EE03C
:101EC000F80124836083718382839383B3CD2B32A3
:101ED00019F01196C12CC8CF1296FCCF60E070E0CB
:101EE00080E89FEFD110EBCF60E070E080E89FE7E3
:101EF000E6CFCC2019F0D195C195D1092C912111B3
:101F0000EDCDCB0DD11DB7FCDA950E94371334E926
:101F1000A32E30E0B32E1C161D063CF0D195C195C2
:101F2000D1094CE7A42E40E0B42EC12C209791F0AB
:101F3000C0FF0CC044E0C49EF0011124EA0DFB1D5B
:101F400025913591459154910E949813D595C79547
:101F5000C394ECCFDD2009F4B2CF9058B0CFCB01C1
:101F60000C9484151F920F920FB60F9211242F9389
:101F70003F938F939F93AF93BF9380919D029091D6
:101F80009E02A0919F02B091A00230919C0223E09A
:101F9000230F2D3758F50196A11DB11D20939C02EA
:101FA00080939D0290939E02A0939F02B093A00203
:101FB0008091980290919902A0919A02B0919B020F
:101FC0000196A11DB11D8093980290939902A09350
:101FD0009A02B0939B02BF91AF919F918F913F91D5
:101FE0002F910F900FBE0F901F90189526E8230F8A
:101FF0000296A11DB11DD2CF1F920F920FB60F9264
:1020000011242F933F934F935F936F937F938F93FD
:102010009F93AF93BF93EF93FF9381EA92E00E9467
:10202000E301FF91EF91BF91AF919F918F917F91CC
:102030006F915F914F913F912F910F900FBE0F9035
:102040001F9018951F920F920FB60F9211242F9385
:102050008F939F93EF93FF93E091B102F091B202BF
:102060008081E091B702F091B80282FD1BC090819F
:102070008091BA028F5F8F732091BB02821741F06B
:10208000E091BA02F0E0EF55FD4F958F8093BA02D0
:10209000FF91EF919F918F912F910F900FBE0F9015
:1020A0001F9018958081F4CFCF93DF93CDB7DEB723
:1020B000C158D1090FB6F894DEBF0FBECDBF7894DA
:1020C00084B5826084BD84B5816084BD85B582603D
:1020D00085BD85B5816085BD80916E0081608093EE
:1020E0006E00109281008091810082608093810057
:1020F0008091810081608093810080918000816067
:10210000809380008091B10084608093B1008091C1
:10211000B00081608093B00080917A0084608093E9
:102120007A0080917A00826080937A0080917A00B0
:10213000816080937A0080917A00806880937A0031
:102140001092C1008AE00E94BA0087E00E94BA00A3
:1021500085E00E94BA008BE00E94BA0086E00E94EF
:10216000BA00E091B102F091B20282E08083E09186
:10217000AD02F091AE021082E091AF02F091B00298
:102180008FEC80831092B902E091B502F091B60213
:1021900086E08083E091B302F091B4028081806197
:1021A0008083E091B302F091B402808188608083E3
:1021B000E091B302F091B402808180688083E09165
:1021C000B302F091B40280818F7D80838DE591E030
:1021D0000E94ED0550E5A52EB12CAC0EBD1E8AE186
:1021E000A80EB11C90E0492E91E0592E20E5C22E98
:1021F000D12CCC0EDD1E95E0C90ED11C31E9632E29
:1022000031E0732E40E0242E40E0342E81EA92E04B
:102210000E94C301181619060CF0D5C0EE961FAE29
:102220001EAEEE97C258DF4F19821882CE57D040AB
:10223000C058DF4F19821882C058D040CE01845850
:102240009F4F0E942A0B0E947501C058DF4F0881E2
:102250001981C058D04097FD27C08A30910521F1DF
:1022600089831A820F5F1F4FB801CE0184589F4F98
:102270000E94DB06882339F3EE962EAD3FADEE9734
:10228000C058DF4F88819981C058D040BE016F5F30
:102290007F4F820F931F0E947817C058DF4F19831A
:1022A0000883C058D040CFCF62965FAE4EAE6297E3
:1022B00063961FAE639765961FAE1EAE6597A79691
:1022C000DFAECEAEA797A8961FAEA89784E0A996DA
:1022D0008FAFA9978FEFAA968FAFAA97AF961FAE31
:1022E000AF97E0968FAFE097EE96EEACFFACEE972F
:1022F00060E071E0C6010E943A0363961FAE6397E7
:1023000062968EAC9FAC629765968EAD9FAD6597D9
:10231000009759F0FC012081318165963FAF2EAFC7
:102320006597B4010E945505EFCFAF961FAEAF97EA
:1023300080E590E08C0F9D1F9A8389831C821B820D
:102340001E821D821F82F986E8860E0D1F1D1B87C7
:102350000A871D869F878E874AE0B501CE010196C8
:102360000E94C20C8C01892B51F48C85882339F092
:10237000AF968FADAF9783FF02C003E010E08B8173
:102380009C81009731F0E981FA81608171810E941E
:1023900055050115110519F18CE791E00E94ED0535
:1023A000000F111FF801EC5DFE4F808191810E94AA
:1023B000ED05CE01805B9F4F0E94C705CE0184587A
:1023C0009F4F0E94420B2114310409F41FCF0E9439
:1023D000CF01882309F406CF0E94000003CFE0E577
:1023E000F0E0EC0FFD1FFA83E9837C826B8285E0CD
:1023F0008D838E81807880688E83BE016F5F7F4F72
:10240000CE018A589F4F0E944D0B80E590E08C0FC3
:102410009D1F9A838983E7E9F1E0FC83EB8387E0E2
:102420008D838E81807880688E83BE016F5F7F4F41
:10243000CE0180599F4F0E944D0BCE018A589F4F6D
:102440000E940806CE0180599F4F0E9408066FE93E
:1024500071E0CE018A589F4F0E94C6068823D9F0AA
:1024600064EA71E0CE0180599F4F0E94C60688231E
:1024700049F061E08AE00E94D90087EA91E00E9479
:10248000ED052DC066EE71E0CE0180599F4F0E9490
:10249000C60681112FC064EB71E0CE018A589F4FB0
:1024A0000E94C60681112DC066ED71E0CE018A58EA
:1024B0009F4F0E94C606811145C068EF71E0CE01B2
:1024C0008A589F4F0E94C60681115DC06FE172E07D
:1024D000CE018A589F4F0E94C606811175C0CE0159
:1024E00080599F4F0E94420BCE018A589F4F0E94F5
:1024F000420B5FCF60E08AE00E94D9008AEB91E056
:10250000BECF64EA71E0CE0180599F4F0E94C6069B
:10251000882339F061E085E00E94D90088EC91E0E1
:10252000AECF66EE71E0CE0180599F4F0E94C60685
:10253000882309F4B9CF60E085E00E94D9008CEDD2
:1025400091E09DCF64EA71E0CE0180599F4F0E94D7
:10255000C606882339F061E087E00E94D9008AEE40
:1025600091E08DCF66EE71E0CE0180599F4F0E94C1
:10257000C606882309F4A1CF60E087E00E94D90055
:102580008FEF91E07CCF64EA71E0CE0180599F4FDC
:102590000E94C606882339F061E08BE00E94D900D2
:1025A0008EE092E06CCF66EE71E0CE0180599F4FD5
:1025B0000E94C606882309F489CF60E08BE00E9460
:1025C000D90086E292E05BCF64EA71E0CE018059E7
:1025D0009F4F0E94C606882339F061E086E00E9482
:1025E000D90088E392E04BCF66EE71E0CE018059CE
:1025F0009F4F0E94C606882309F471CF60E086E0F1
:102600000E94D90089E492E03ACFE1EAF2E0138235
:10261000128288EE93E0A0E0B0E084839583A683E5
:10262000B78386E191E09183808385EC90E0958784
:10263000848784EC90E09787868780EC90E0918B8C
:10264000808B81EC90E0938B828B82EC90E0958B79
:10265000848B86EC90E0978B868B118E128E138E76
:10266000148E08950E94741308F481E00895E8948C
:1026700009C097FB3EF490958095709561957F4FCA
:102680008F4F9F4F9923A9F0F92F96E9BB27939578
:10269000F695879577956795B795F111F8CFFAF488
:1026A000BB0F11F460FF1BC06F5F7F4F8F4F9F4FB9
:1026B00016C0882311F096E911C0772321F09EE817
:1026C000872F762F05C0662371F096E8862F70E07D
:1026D00060E02AF09A95660F771F881FDAF7880F57
:1026E0009695879597F90895990F0008550FAA0BAD
:1026F000E0E8FEEF16161706E807F907C0F0121615
:102700001306E407F50798F0621B730B840B950B17
:1027100039F40A2661F0232B242B252B21F408956C
:102720000A2609F4A140A6958FEF811D811D089509
:102730000E94AB130C941C140E940E1438F00E94DB
:10274000151420F0952311F00C9405140C940B141F
:1027500011240C9450140E942D1470F3959FC1F312
:10276000950F50E0551F629FF001729FBB27F00D3F
:10277000B11D639FAA27F00DB11DAA1F649F662794
:10278000B00DA11D661F829F2227B00DA11D621FE3
:10279000739FB00DA11D621F839FA00D611D221F9D
:1027A000749F3327A00D611D231F849F600D211D81
:1027B000822F762F6A2F11249F5750409AF0F1F004
:1027C00088234AF0EE0FFF1FBB1F661F771F881F6D
:1027D00091505040A9F79E3F510580F00C9405148C
:1027E0000C9450145F3FE4F3983ED4F386957795AC
:1027F0006795B795F795E7959F5FC1F7FE2B880F13
:10280000911D9695879597F9089597F99F6780E8A8
:1028100070E060E008959FEF80EC089500240A9432
:102820001616170618060906089500240A941216AB
:102830001306140605060895092E0394000C11F4DE
:10284000882352F0BB0F40F4BF2B11F460FF04C08B
:102850006F5F7F4F8F4F9F4F089557FD9058440FE4
:10286000551F59F05F3F71F04795880F97FB991FEF
:1028700061F09F3F79F087950895121613061406AC
:10288000551FF2CF4695F1DF08C016161706180639
:10289000991FF1CF86957105610508940895E89414
:1028A000BB2766277727CB0197F908950E949814D4
:1028B000A59F900DB49F900DA49F800D911D112494
:1028C00008952F923F924F925F926F927F928F92D4
:1028D0009F92AF92BF92CF92DF92EF92FF920F93AF
:1028E0001F93CF93DF93CDB7DEB7CA1BDB0B0FB6B9
:1028F000F894DEBF0FBECDBF09942A883988488876
:102900005F846E847D848C849B84AA84B984C8840B
:10291000DF80EE80FD800C811B81AA81B981CE0F02
:10292000D11D0FB6F894DEBF0FBECDBFED010895E7
:10293000A29FB001B39FC001A39F700D811D112400
:10294000911DB29F700D811D1124911D0895AA1B28
:10295000BB1B51E107C0AA1FBB1FA617B70710F08A
:10296000A61BB70B881F991F5A95A9F780959095BC
:10297000BC01CD010895A1E21A2EAA1BBB1BFD01CB
:102980000DC0AA1FBB1FEE1FFF1FA217B307E4074E
:10299000F50720F0A21BB30BE40BF50B661F771FA6
:1029A000881F991F1A9469F7609570958095909586
:1029B0009B01AC01BD01CF010895EE0FFF1F0590F3
:1029C000F491E02D09945058BB27AA270E94FB14CC
:1029D0000C941C140E940E1438F00E94151420F060
:1029E00039F49F3F19F426F40C940B140EF4E0957F
:1029F000E7FB0C940514E92F0E942D1458F3BA1725
:102A0000620773078407950720F079F4A6F50C9404
:102A10004F140EF4E0950B2EBA2FA02D0B01B90127
:102A200090010C01CA01A0011124FF27591B99F044
:102A3000593F50F4503E68F11A16F040A22F232F50
:102A4000342F4427585FF3CF469537952795A795A0
:102A5000F0405395C9F77EF41F16BA0B620B730B47
:102A6000840BBAF09150A1F0FF0FBB1F661F771FB8
:102A7000881FC2F70EC0BA0F621F731F841F48F46D
:102A8000879577956795B795F7959E3F08F0B0CFF6
:102A90009395880F08F09927EE0F979587950895DD
:102AA0000E94351488F09F5798F0B92F9927B75195
:102AB000B0F0E1F0660F771F881F991F1AF0BA95E2
:102AC000C9F714C0B13091F00E944F14B1E00895DD
:102AD0000C944F14672F782F8827B85F39F0B93FCF
:102AE000CCF3869577956795B395D9F73EF4909595
:102AF0008095709561957F4F8F4F9F4F08950E94ED
:102B0000741308F48FEF08950F931F93CF93DF93FF
:102B10008230910510F482E090E0E0914003F09162
:102B2000410330E020E0B0E0A0E0309799F42115B7
:102B3000310509F44AC0281B390B24303105D8F57A
:102B40008A819B816115710589F1FB0193838283E1
:102B5000FE0111C04081518102811381481759073C
:102B6000E0F04817590799F4109761F012960C930A
:102B7000129713961C933296CF01DF91CF911F913C
:102B80000F9108950093400310934103F4CF211552
:102B9000310551F04217530738F0A901DB019A01C2
:102BA000BD01DF01F801C1CFEF01F9CF90934103DF
:102BB00080934003CDCFFE01E20FF31F81939193E9
:102BC0002250310939832883D7CF20913E03309199
:102BD0003F03232B41F420910401309105013093F0
:102BE0003F0320933E032091020130910301211500
:102BF000310541F42DB73EB74091060150910701D0
:102C0000241B350BE0913E03F0913F03E217F307DD
:102C1000A0F42E1B3F0B2817390778F0AC014E5F4C
:102C20005F4F2417350748F04E0F5F1F50933F0347
:102C300040933E03819391939FCFF0E0E0E09CCFDF
:102C4000CF93DF930097E9F0FC0132971382128251
:102C5000A0914003B0914103ED0130E020E01097D6
:102C6000A1F420813181820F931F20913E03309186
:102C70003F032817390709F061C0F0933F03E09341
:102C80003E03DF91CF910895EA01CE17DF07E8F503
:102C90004A815B819E0141155105B1F7E901FB8332
:102CA000EA8349915991C40FD51FEC17FD0761F4D0
:102CB000808191810296840F951FE9019983888311
:102CC000828193819B838A83F0E0E0E012968D916C
:102CD0009C9113970097B9F52D913C911197CD01D7
:102CE0000296820F931F20913E0330913F032817D5
:102CF000390739F6309751F510924103109240038D
:102D0000B0933F03A0933E03BCCFD383C2834081E3
:102D10005181840F951FC817D90761F44E5F5F4F2B
:102D200088819981480F591F518340838A819B81F3
:102D3000938382832115310509F0B0CFF0934103CD
:102D4000E09340039ECFFD01DC01C0CF13821282CD
:102D5000D7CFB0E0A0E0EFEAF6E10C9463148C0169
:102D6000009751F4CB010E9484158C01C801CDB7A6
:102D7000DEB7E0E10C947F14FC01E60FF71F9C0125
:102D800022503109E217F30708F49DC0D901CD9113
:102D9000DC911197C617D70798F0C530D10530F3ED
:102DA000CE0104978617970708F3C61BD70B229707
:102DB000C193D1936D937C93CF010E942016D6CFFF
:102DC0005B01AC1ABD0A4C018C0E9D1EA091400304
:102DD000B0914103512C412CF12CE12C109731F58D
:102DE00080913E0390913F038815990509F05CC0DE
:102DF0004616570608F058C08091020190910301D1
:102E0000009741F48DB79EB740910601509107019C
:102E1000841B950BE817F90708F055C0F0933F03A2
:102E2000E0933E03F90171836083A0CF8D919C9163
:102E3000119712966C90129713967C901397A81581
:102E4000B90559F56C0142E0C40ED11CCA14DB046B
:102E500020F1AC014A195B09DA011296159780F04E
:102E60006282738251834083D9016D937C93E11414
:102E7000F10471F0D7011396FC93EE93129776CF7D
:102E800022968C0F9D1FF90191838083F301EFCF70
:102E9000F0934103E093400369CF4816590608F4C4
:102EA0002C017D01D3019ACFCB010E9484157C01B6
:102EB000009749F0AE01B8010E946617C8010E9450
:102EC0002016870153CF10E000E050CFFB01DC015A
:102ED00002C001900D9241505040D8F70895FB0177
:102EE000DC018D91019080190110D9F3990B08959F
:102EF000FB01DC0101900D920020E1F70895F894A8
:022F0000FFCF01
:102F02000C0100004203800000000000AF0F4A0BDA
:102F1200140B000000000502250152015202C301F8
:102F22006101B5015B025E026902790286028F02CB
:102F32002F2F272722225C5C6208660C6E0A720D14
:102F42007409000D0A005C7530303030006E756C0B
:102F52006C00747275650066616C73650041726421
:102F620075696E6F20697320636F6E6E6563746539
:102F72006420746F20434F4D313221004A534F4E2B
:102F82002050617273696E67204661696C656421C5
:102F920000636F6C6F7200636F6D6D616E640042EF
:102FA2006C7565004F4E00424C5545204C454420FF
:102FB2004F4E2100576869746500424C5545204CBC
:102FC2004544204F464621005748495445204C4528
:102FD20044204F4E2100477265656E0057484954A0
:102FE20045204C4544204F464600475245454E2019
:102FF2004C4544204F4E2100507572706C6500475D
:103002005245454E204C4544204F464621005055DE
:1030120052504C45204C49474854204F4E21004FB6
:1030220072616E676500505552504C45204C4947BD
:103032004854204F464621004F52414E4745204CAE
:1030420049474854204F4E21004F52414E47452098
:103052004C49474854204F464621004F6B00456D6E
:10306200707479496E70757400496E636F6D706C1F
:10307200657465496E70757400496E76616C696439
:10308200496E707574004E6F4D656D6F72790054A4
:083092006F6F446565700000DA
:00000001FF
